:020000040800F2
:10000000785100204D020008ED130008E5130008A8
:10001000E9130008810500083118000800000000FD
:100020000000000000000000000000006114000853
:10003000A905000800000000F1130008851400085D
:1000400067020008670200086702000867020008EC
:1000500067020008670200086702000867020008DC
:1000600067020008670200086702000867020008CC
:10007000850500086702000891050008670200086E
:1000800067020008670200086702000867020008AC
:10009000670200086702000867020008670200089C
:1000A000670200086702000867020008670200088C
:1000B000670200086702000867020008670200087C
:1000C000670200086702000867020008670200086C
:1000D0006702000867020008670200081918000894
:1000E000670200086702000867020008670200084C
:1000F000670200086702000867020008670200083C
:10010000670200086702000867020008670200082B
:10011000670200086702000867020008670200081B
:10012000670200086702000867020008670200080B
:1001300067020008670200086702000867020008FB
:1001400067020008670200086702000867020008EB
:10015000670200089D0500086702000825180008CE
:1001600067020008670200086702000867020008CB
:10017000670200086702000867020008000000002C
:1001800067020008670200086702000867020008AB
:10019000670200086702000867020008670200089B
:1001A00067020008670200086702000800F002F812
:1001B00000F03CF80AA090E8000C82448344AAF1C5
:1001C0000107DA4501D100F031F8AFF2090EBAE8C3
:1001D0000F0013F0010F18BFFB1A43F0010318477B
:1001E0007043000090430000103A24BF78C878C1E3
:1001F000FAD8520724BF30C830C144BF04680C602D
:10020000704700000023002400250026103A28BF74
:1002100078C1FBD8520728BF30C148BF0B60704778
:100220001FB504F088F91FBD10B510BD00F050F8DF
:100230001146FFF7F5FF01F0FDFA00F06EF803B488
:10024000FFF7F2FF03BC00F075F800000948804793
:1002500009480047FEE7FEE7FEE7FEE7FEE7FEE7A8
:10026000FEE7FEE7FEE7FEE704480549054A064BC0
:1002700070470000DD140008AD010008784B002035
:1002800078510020784D0020784D002010B5431C97
:1002900002E010F8011B71B18107FAD14FF0013271
:1002A00002C88C1A8C4314EAC211F9D0C01A0A068B
:1002B00003D0C01E10BDC01A10BD0A0401D0801E9C
:1002C00010BD0902FCD0401E10BD7047704770473A
:1002D000754600F02BF8AE4605006946534620F0FF
:1002E0000700854618B020B5FFF7BEFFBDE82040E7
:1002F0004FF000064FF000074FF000084FF0000BE2
:10030000AC46ACE8C009ACE8C009ACE8C009ACE850
:10031000C00921F007018D46704710B50446AFF3C0
:1003200000802046BDE81040FFF789BF00487047B5
:100330002000002001491820ABBEFEE72600020085
:10034000704753EA020C00F069802DE9F04B4FF042
:100350000006002B1FBFB3FA83F503FA05F424FA55
:1003600005F65E4012BF1643B2FA82F502FA05F4B2
:10037000C5F120051EBF22FA05FC44EA0C04203515
:1003800056EA044C4FEA144418BF641C4FF00008AE
:100390004FF00009904271EB030C39D3002919BFCB
:1003A000B1FA81F701FA07F6B0FA80F700FA07F61A
:1003B000C7F120071EBF20FA07FC46EA0C062037CB
:1003C000B6FBF4FCA7EB0507103F07F01F0BCBF1C2
:1003D00020062CFA06F60CFA0BFB44BFB3460026A7
:1003E000202FA4BF5E464FF0000B5BEA060C08BF4F
:1003F0004FF0010B19EB0B0948EB0608ABFB027C35
:1004000006FB02CC0BFB03CCC01B71EB0C01C1E75C
:100410000B46024641464846BDE8F08B13B50843FB
:1004200018BF4FF0FF300146AFF30080BDE81C401D
:100430007047032A40F2308010F0030C00F0158062
:1004400011F8013BBCF1020F624498BF11F801CBD7
:1004500000F8013B38BF11F8013BA2F1040298BF3C
:1004600000F801CB38BF00F8013B11F0030300F0A6
:100470002D80083AC0F0088051F8043B083A51F842
:1004800004CBA0E80810F5E7121D5CBF51F8043B4F
:1004900040F8043BAFF30080D20724BF11F8013BC2
:1004A00011F801CB48BF11F8012B24BF00F8013B24
:1004B00000F801CB48BF00F8012B704702F0FF03A2
:1004C00043EA032242EA024200F034B810B5203A6F
:1004D000C0F00B80B1E81850A0E81850B1E81850EF
:1004E000A0E81850203ABFF4F5AF5FEA027C24BFC1
:1004F000B1E81850A0E8185044BF18C918C0BDE8AA
:1005000010405FEA827C24BF51F8043B40F8043B72
:1005100008BF7047D20728BF31F8023B48BF11F827
:10052000012B28BF20F8023B48BF00F8012B704781
:100530004FF0000200B5134694469646203922BF7C
:10054000A0E80C50A0E80C50B1F12001BFF4F7AFC7
:10055000090728BFA0E80C5048BF0CC05DF804EBA9
:10056000890028BF40F8042B08BF704748BF20F817
:10057000022B11F0804F18BF00F8012B70470000CC
:10058000FEE7000040F28400C2F2000000F064B810
:1005900040F2E400C2F2000000F05EB840F2441005
:1005A000C2F2000000F058B87047000010B544F2E5
:1005B0009832C2F20002D0F858C0136890F8351093
:1005C000022939D10168D0F840E00C68BEF1000F73
:1005D00024F016040C604C6924F080044C6101D1B5
:1005E000846C1CB10C6824F008040C600C6824F0C6
:1005F00001040C600C68E40721D01468E41A052C8F
:1006000014D80C68E4071AD01468E41A052C0DD825
:100610000C68E40713D01468E41A052C06D80C689B
:10062000E4070CD01468E41A062CE3D320214165BA
:10063000032180F835100BE08021416508E0C16D91
:100640003F2202FA01F1CCF80810012180F83510A0
:10065000002180F8341010BDF0B581B004460020B0
:10066000009040F20000C2F200000268D4E9166077
:1006700048F2B51337680821C1F64E33814039423C
:10068000A2FB03250CD0226813685B0708D513680A
:1006900023F004031360B160616D41F001016165F5
:1006A00001218140394208D022685269120604D5DE
:1006B000B160616D41F00201616504218140394200
:1006C00008D022681268920704D5B160616D41F0CC
:1006D00004016165102101FA00F23A4216D0216846
:1006E0000B681B0712D5B2600B680A685B0306D45F
:1006F000D20506D40A6822F008020A6001E011035C
:1007000040D4216C11B120468847E06D202101FAC8
:1007100000F23A4242D021680B68DB063ED5B26057
:1007200094F835300A68052B1CD122F016020A60B5
:100730004A6922F080024A61226C0AB9A26C1AB19D
:100740000A6822F008020A603F2101FA00F0B06056
:10075000012084F83500216D0020002984F8340040
:1007600052D156E00868520310D4C00512D408686C
:1007700020F010000860012084F83500002084F883
:10078000340007E0A16C0029BDD1BFE7000301D40C
:10079000616C00E0E16B09B120468847606DC0B331
:1007A000606DC0072ED0052084F835002068A90AA6
:1007B000026822F001020260009A01328A4200922D
:1007C0001AD80268D20717D0009A01328A420092E2
:1007D00012D80268D2070FD0009A01328A420092E2
:1007E0000AD80268D20707D0009A01328A420092E2
:1007F00002D80268D207DFD1012084F8350000203A
:1008000084F83400E16C21B1204601B0BDE8F0402D
:10081000084701B0F0BD00002DE9F04144F29831E5
:10082000C2F200010B6850B3022280F83520002587
:10083000026880F83450156825F0010515601568C8
:10084000ED071FD00D68ED1A052D14D81568ED07BA
:1008500018D00D68ED1A052D0DD81568ED0711D0CB
:100860000D68ED1A052D06D81568ED070AD00D683C
:10087000ED1A052DE3D903232024032161E0012093
:10088000BDE8F081116848F23F03CFF21003D0E9D0
:10089000015401EA030C00F10C0898E8C20145EA92
:1008A0000C0525432943D0E9073E31433943194319
:1008B000456A41EA0E01042D41EA08031CD1016B8F
:1008C000D0E90A5E41EA0E01194311605169BEF197
:1008D000000F21F0030141EA050141F0040C11D0A1
:1008E000B8F5005F33D0B8F1000F40D1022D41D0F0
:1008F000012D36D035B93DE01360516921F0070173
:1009000041EA050C02F0F8014AF6AB231039CAF6A9
:10091000AA23A1FB03373B091AA7FB5C40F2FF3770
:100920005F294FF03F01C2F814C022EA070201FA22
:1009300003F188BF0432C0E916239160002401232B
:100940000021446580F835300846BDE8F081032D6C
:10095000D8D8012340240121DFE805F0020C02036E
:10096000EFE7AEF1C071B1FA81F1490904E0032D5E
:1009700004D3C7D1CEF300610029C3D001234024A2
:100980000121DEE700061016000610162DE9F04FD3
:1009900082B000F13E4242F2004502F1FF77C4F21C
:1009A00002050A2243F6004E4FEAB726A84208BFC6
:1009B0000922C4F2010E092E38BF4FEAB7220125E1
:1009C000002600274FF00008009208E008F1010817
:1009D0000437B8F1100F06F1020600F0A6800C688B
:1009E00005FA08F914EA090FF0D0D1F804B003228F
:1009F0000BF0030CACF10104B240012C6FEA020AC7
:100A000010D88268CC6802EA0A02B44022438260AD
:100A10004268CBF3001422EA090204FA08F42243E4
:100A2000426005E0BCF1030F02D14FF0030C20E05F
:100A3000C2688C6802EA0A02B4402243BCF1020F89
:100A4000C26016D16FF0030202EA58020244D2F8E3
:100A500020C007F01C050F230C69AB402CEA0303F0
:100A600004FA05F52B431362D1F804B001250BF00D
:100A7000030C02680CFA06F302EA0A021A431BF49A
:100A8000403F0260A2D0002243F644030192C4F228
:100A900002031A684FF6084C42F480421A601A6842
:100AA000CFF6FF7C02F480420192019A28F0030203
:100AB000724452F80C3007F00C050F24AC40A343ED
:100AC000009C04FA05F52B4342F80C30DEF80820B0
:100AD0004B6842EA090543F60C4CDC0258BF22EA97
:100AE0000905CEF80850C4F2010CDCF800209C0285
:100AF00042EA090558BF22EA0905CCF80050DEF8A1
:100B000004209C0342EA090558BF22EA0905CEF8F1
:100B10000450DEF80020DB0342EA090558BF22EA50
:100B20000905CEF80050012550E702B0BDE8F08F6E
:100B3000B0B582B0044600680168C368426901F03C
:100B40002F05202D03F0200506D12DB1204602B03F
:100B5000BDE8B04000F0E8BD5FEA017C1EBF02F0D6
:100B6000010E03F4907212EB0E0240F0C980226B6A
:100B7000012A05D111F0100218BF13F0100232D172
:100B80000A0622D513F080021FD094F83D102129C7
:100B900027D1A168B1F5805F03D12169002900F058
:100BA0006082216A4A1C226209784160E18C013925
:100BB0000A04E18415D1C16821F08001C160C168D7
:100BC00041F04001C16002B0B0BD490609D513F043
:100BD000400106D0C16821F04001C160202084F8A6
:100BE0003D0002B0B0BD0021019101680191416852
:100BF000019101994069400600F18C80A08DE18D42
:100C0000E28D002A18BF8842EBD0206850E8030F1D
:100C1000216820F4907041E80302BAB3206850E8DC
:100C2000030F216820F4907041E8030272B320683A
:100C300050E8030F216820F4907041E803022AB3C2
:100C4000206850E8030F216820F4907041E8030207
:100C5000002ADAD11AE0206850E8050F216820F058
:100C6000010041E80502DAB1206850E8050F21686B
:100C700020F0010041E8050292B1206850E8050F1C
:100C8000216820F0010041E805024AB1206850E8DF
:100C9000050F216820F0010041E80502002ADAD1A1
:100CA000202084F83E0000202063206850E8030FD5
:100CB000216820F0100041E80302002A91D020684A
:100CC00050E8030F216820F0100041E80302002AD9
:100CD0003FF487AF206850E8030F216820F0100030
:100CE00041E80302002A3FF47CAF206850E8030F7C
:100CF000216820F0100041E80302002AD5D170E7F6
:100D0000CA0718BF13F4807240F0B4804A0700F19C
:100D1000B780BCE0A06B016849688AB2002A3FF442
:100D200060AFA38D9A42BFF45CAFE185C069B0F5B6
:100D3000807F00F09C80206850E8030F216820F439
:100D4000807041E80302DAB1206850E8030F21689F
:100D500020F4807041E8030292B1206850E8030F4C
:100D6000216820F4807041E803024AB1206850E80D
:100D7000030F216820F4807041E80302002ADAD1D1
:100D8000206850E8050F216820F0010041E80502C5
:100D9000DAB1206850E8050F216820F0010041E831
:100DA000050292B1206850E8050F216820F001008B
:100DB00041E805024AB1206850E8050F216820F09B
:100DC000010041E80502002ADAD1206850E8050F49
:100DD000216820F0400041E80502DAB1206850E8BF
:100DE000050F216820F0400041E8050292B120681B
:100DF00050E8050F216820F0400041E805024AB1A3
:100E0000206850E8050F216820F0400041E8050205
:100E1000002ADAD1202084F83E00002020632068D8
:100E200050E8030F216820F0100041E80302DAB116
:100E3000206850E8030F216820F0100041E8030209
:100E400092B1206850E8030F216820F0100041E8BB
:100E500003024AB1206850E8030F216820F0100017
:100E600041E80302002ADAD1A06BFFF79FFBE08D77
:100E700002B0B0BD226C42F0010222644A0706D5DE
:100E8000BEF1000F03D0226C42F0020222648A07F6
:100E900006D5BEF1000F03D0226C42F0040222649A
:100EA000BCF1000F09D545EA0E02B2FA82F25209EE
:100EB00003D1226C42F008022264226C002A3FF423
:100EC00090AE11F0200118BF002D03D0204600F095
:100ED0002BFC20684069216C00F0400001F0080103
:100EE000401800F0BA8000BF206850E8030F216866
:100EF00020F4907041E80302BAB3206850E8030F71
:100F0000216820F4907041E8030272B3206850E831
:100F1000030F216820F4907041E803022AB320688F
:100F200050E8030F216820F4907041E80302002A82
:100F3000DAD11AE0206850E8050F216820F001009E
:100F400041E80502DAB1206850E8050F216820F079
:100F5000010041E8050292B1206850E8050F2168C0
:100F600020F0010041E805024AB1206850E8050F71
:100F7000216820F0010041E80502002ADAD1206B47
:100F8000012824D1206850E8030F216820F01000C8
:100F900041E80302DAB1206850E8030F216820F02D
:100FA000100041E8030292B1206850E8030F216865
:100FB00020F0100041E803024AB1206850E8030F16
:100FC000216820F0100041E80302002ADAD1202035
:100FD00084F83E00002020632068406940067FF5C9
:100FE00000AE206850E8050F216820F0400041E87D
:100FF0000502DAB1206850E8050F216820F04000B2
:1010000041E8050292B1206850E8050F216820F000
:10101000400041E805024AB1206850E8050F216808
:1010200020F0400041E80502002ADAD1A06B002838
:101030003FF4D7AD41F2F141C0F60001016590F8EF
:101040003510022915D1052180F835100068016896
:1010500021F00101016002B0B0BD0020206402B0A7
:10106000B0BD216A31F8022B6FF35F22426021622A
:101070009CE58021416502B0BDE8B04000F038BA7F
:101080002DE9F04F87B000286BD0044690F83D0062
:1010900043F6300641F20008C4F202060028C4F20A
:1010A000010800F09380242084F83D002568D4E9ED
:1010B0000212E069EB6823F40053EB602B6923F420
:1010C00040531A432A61D4E904231143EA681943BF
:1010D00049F20C639A4311430143E9606969A269CB
:1010E00021F440711143696125F48061414540F26A
:1010F0000001C2F200014FF00A02096856F8283CCC
:1011000008BF0D2223FA02F202F00702B3A39A5C91
:101110004FF69C76D14019226368C0F6FF76B0F591
:10112000004FA1FB020120D15A00DB0FFFF709F9A4
:1011300048F21F51C5F2EB11A0FB01235A0906F139
:10114000805302FB0300322303EBC000A0FB01012C
:101150004FF4F87000EA111000EB0210C1F34211D5
:101160001CE0012007B0BDE8F08F9A009B0FFFF74D
:10117000E8F848F21F51C5F2EB11A0FB01235A0910
:1011800002FB0600322303EB0010A0FB0101F0205C
:1011900000EA511000EB0210C1F343110844A860AB
:1011A0002869202120F490402861686920F02A00F5
:1011B0006861E86840F40050E8600020206484F82A
:1011C0003D1084F83E1007B0BDE8F08F206841F272
:1011D0000041C4F201010027884284F83C70CDE947
:1011E0000577CDE9037702974DD044F60001C4F2AC
:1011F000000188427FF457AF00270197306946F21B
:10120000280940F480203061306902A900F4802070
:101210000190019801973068C4F2020940F008007B
:101220003060306800F00800019001984FF4407081
:1012300002900220CDE903070320059007200690C5
:1012400008F57C40FFF7A2FB40F2E40509F130000D
:10125000C2F200054FF0006B4021C5E9000B05F11B
:1012600008004FF4806A80E882042846C5E90577C3
:10127000C5E907776F62FFF7CFFA002845D0EFF393
:10128000108072B6FEE70197706902A940F0200055
:101290007061706900F0200001900198019730683A
:1012A00040F004003060306800F0040001900198C4
:1012B000C02002900220CDE90307032005900820FA
:1012C000069008F57840FFF761FB46F22800C4F26B
:1012D000020040F2441500F58F60C2F200054FF0A5
:1012E000206140224FF4806385E887002846C5E9E5
:1012F0000437C5E90677C5E90877FFF78DFAE0B14D
:10130000EFF3108072B600BFFEE76563AC6340F296
:101310008405C2F200052846C5E9009BC5E90277AD
:10132000C5E904A7C5E90677C5E90877FFF774FAA8
:1013300060B3EFF3108072B6FEE74EF60C506563B3
:10134000AC63CEF2000000684FF0FF32C0F3022021
:1013500080F00701042928BF0421033802FA01F1B3
:101360004FF0060238BF002022EA010101FA00F026
:101370004EF227410001CEF2000181F820004EF22A
:101380000410CEF20000802141608CE64EF60C5035
:10139000A563AC63CEF2000000684FF0FF32C0F3EB
:1013A000022080F00701042928BF0421033802FA33
:1013B00001F14FF0050238BF002022EA010101FAD5
:1013C00000F04EF227410001CEF2000108704EF20B
:1013D0000410CEF200008021016064E600000000ED
:1013E00001020304FEE70000FEE70000FEE7000044
:1013F000EFF30980BFF36F8F154B1A681EF0100FC3
:1014000008BF20ED108A20E9F04F10602DE9090097
:101410004FF0500080F31188BFF34F8FBFF36F8FF1
:1014200002F076FC4FF0000080F31188BDE809005F
:1014300019680868B0E8F04F1EF0100F08BFB0EC54
:10144000108A80F30988BFF36F8F704700BF00BF19
:101450002003002000000000000000000000000049
:10146000074B19680868B0E8F04F80F30988BFF3AC
:101470006F8F4FF0000080F31188704700BF00BFEE
:101480002003002080B544F29830C2F200000168C9
:101490000131016044F63430C2F2000000680028D7
:1014A00008BF80BD44F2A830C2F2000000684FF0CF
:1014B000500080F31188BFF36F8FBFF34F8F02F09E
:1014C000A5FD30B14EF60450CEF200004FF0805131
:1014D0000160002080F3118880BD00004EF6885026
:1014E000CEF20000016841F4700101607047000015
:1014F000806B0021C185C18470470000806B01684A
:101500004A6990F83D30212B2DD112F080022AD06B
:101510000021C184016851E8031F026821F0C00165
:1015200042E80313DBB1016851E8031F026821F0B0
:10153000C00142E8031393B1016851E8031F026838
:1015400021F0C00142E803134BB1016851E8031FC9
:10155000026821F0C00142E80313002BDAD12021F8
:1015600080F83D100168496990F83E20222A40F039
:101570007D8011F0400179D00021C185016851E8DA
:10158000031F026821F4907142E80313BBB30168A2
:1015900051E8031F026821F4907142E8031373B30A
:1015A000016851E8031F026821F4907142E80313B7
:1015B0002BB3016851E8031F026821F4907142E8DF
:1015C0000313002BDAD11AE0016851E8051F026805
:1015D00021F0010142E80513DBB1016851E8051F64
:1015E000026821F0010142E8051393B1016851E856
:1015F000051F026821F0010142E805134BB10168A3
:1016000051E8051F026821F0010142E80513002B93
:10161000DAD1016B012924D1016851E8031F026866
:1016200021F0100142E80313DBB1016851E8031F08
:10163000026821F0100142E8031393B1016851E8F8
:10164000031F026821F0100142E803134BB1016847
:1016500051E8031F026821F0100142E80313002B38
:10166000DAD1202180F83E1000210163016C41F0A5
:1016700010010164704700000168806B0968C905AA
:101680004FD40021C18400BF016851E8051F0268E2
:1016900021F0800142E8051383B3016851E8051F7A
:1016A000026821F0800142E805133BB3016851E86C
:1016B000051F026821F0800142E80513F3B10168BB
:1016C00051E8051F026821F0800142E80513002B54
:1016D000DAD113E0016851E8031F026841F04001CC
:1016E00042E80313002B08BF7047016851E8031F4D
:1016F000026841F0400142E8031393B1016851E8E8
:10170000031F026841F0400142E803134BB1016836
:1017100051E8031F026841F0400142E80313002B27
:10172000D8D170477047000081B090F83E10222950
:1017300020D183680246B3F5805F08D152F8281F94
:1017400052F8183C002B5FD003685B6809E052F840
:10175000281F13B90369002BF6D003685B6803F0F8
:101760007F030B70116801311160C18D01390A04CA
:10177000C18501D001B070470168CA6822F020021B
:10178000CA60CA6822F48072CA604A6922F0010203
:101790004A61202180F83E10016B0129EAD1002125
:1017A000016300BF016851E8031F026821F01001C6
:1017B00042E80313DBB1016851E8031F026821F01E
:1017C000100142E8031393B1016851E8031F026856
:1017D00021F0100142E803134BB1016851E8031FE7
:1017E000026821F0100142E80313002BDAD10068EF
:1017F0000168C906BED500210091016800914068CA
:101800000090009801B07047026852686FF35F2241
:1018100021F8022B8162A8E740F2A410C2F2000076
:10182000FFF786B940F2E810C2F20000FFF780B976
:10183000FEE7000088B043F60806C4F20206D6F8B8
:10184000F8034EF60C5740F40070C6F8F803D6F8CB
:10185000F803CEF2000740F48060C6F8F803D6F82B
:10186000F8034FF6FF0140F48070C6F8F8033868BB
:1018700040F2000B084040F20031C0F2FA51084338
:101880003860C2F2000BDBF8000044F6D358C1F216
:101890006208A0FB08024FF0FF3101EB921200201A
:1018A000B0EB126F21D14EF21003CEF200035A605A
:1018B000F022FA75072298601A603A68C2F3022291
:1018C00082F00703042B28BF0423033A01FA03F331
:1018D00038BF0246DB4303FA02F21201FA7544F202
:1018E0009C32C2F20002012313700390F26B47F2A4
:1018F000000442F48042F263F26BC4F2000402F48A
:1019000080420392039A0390B26B42F08052B2631A
:10191000B26B02F080520392039A3A68C2F3022239
:1019200082F00703042B28BF04239940033A6FEA8F
:10193000010138BF024691400901B9750390B16BAE
:1019400041F08051B163B16B01F080510391039973
:101950000390206840F440402060206800F440403C
:1019600003900398306800F00C00042837D03068EA
:1019700000F00C00082803D156F8040C40022ED4C5
:1019800056F8080C40F4803046F8080C44F29830C1
:10199000C2F20000016856F8082C920321D40268B4
:1019A000521A642A00F2A98056F8082C920318D41F
:1019B0000268521A642A00F2A08056F8082C92039A
:1019C0000FD40268521A642A00F2978056F8082C45
:1019D000920306D40268521A642ADCD98DE056F8C4
:1019E000080C306800F00C00082830D156F8040CC0
:1019F00047F6FF71C0F64371084042F60421C0F279
:101A00004071884279D1D6F8F80300F00F0004281D
:101A100008D8052086F8F803D6F8F80300F00F0080
:101A200005280FD1306840F4E0503060306840F451
:101A300060403060306820F0F000306056F8080CEC
:101A400080015ED4EFF3108072B600BFFEE7602124
:101A5000C4F247210020086044F29830C2F200002E
:101A6000026856F8083C9B011CD503689B1A022BA0
:101A700043D856F8083C9B0114D503689B1A022BE7
:101A80003BD856F8083C9B010CD503689B1A022BE7
:101A900033D856F8083C9B0104D503689B1A022BE7
:101AA000DFD92AE042F60422C0F2407246F8042C44
:101AB00001220A60016856F8082C9201A3D402683A
:101AC000521A022A19D856F8082C92019BD402689F
:101AD000521A022A11D856F8082C92013FF593AFFA
:101AE0000268521A022A08D856F8082C92013FF5CB
:101AF0008AAF0268521A022ADDD9EFF3108072B65B
:101B0000FEE73068022161F30100306044F2983052
:101B1000C2F20000016841F28832336803F00C031E
:101B2000082B22D003685B1A93423FF68BAF3368D1
:101B300003F00C03082B18D003685B1A93423FF69E
:101B400081AF336803F00C03082B0ED003685B1AD7
:101B500093423FF677AF336803F00C03082B04D0B1
:101B600003685B1A9342D8D96CE7D6F8F80300F003
:101B70000E00062809D3052086F8F803D6F8F803E6
:101B800000F00F0005287FF45DAF3068052161F398
:101B90008C2030603068042161F34F303060306851
:101BA00000F00C0142F200400829C0F2F40006D017
:101BB000042926D141F20020C0F27A0021E056F833
:101BC000041C01F03F0256F8041C56F8043C49027C
:101BD000C3F3881105D4A1FB00010023FEF7B1FB7C
:101BE00006E041F20020C0F27A004843B0FBF2F078
:101BF00056F8041C0222C1F3014102EB4101B0FB83
:101C0000F1F031680FF25072C1F30311515C0025FD
:101C1000C840A0FB0812CBF800004FF0FF3000EBEB
:101C200092114EF2100AB5EB116FCEF2000A25D1D7
:101C300044F29C30C2F200000278CAF80410F0218D
:101C4000F9750721012ACAF80850CAF8001015D101
:101C500039684FF0FF33C1F3022181F00702042AF3
:101C600028BF0422033903FA02F238BF0021D2430D
:101C700002FA01F10901F975012101700795029538
:101C8000B06A4FF0804140F00400B062B06A4FF497
:101C9000804900F00400029002980295B06A40F07A
:101CA0008000B062B06A00F0800002900298029555
:101CB000B06A40F00200B062B06A00F00200029028
:101CC00002980295B06A40F00800B062B06A00F075
:101CD0000800029002980295B06A40F00100B062DC
:101CE000B06A00F001000290029840F21840C4F27D
:101CF000020001600120CDE9040504F5CA3003A902
:101D0000CDF80C900695FEF741FE0395B06A4FF0B2
:101D1000FF3C40F40010B062B06A00F40010039081
:101D200003980395B06A40F48000B062B06A00F492
:101D30008000039003983868C0F3022181F0070205
:101D40000420042A28BF0246CB1E0CFA02F24FF0F0
:101D5000050121EA020238BF2B469A4012018AF897
:101D6000FC234FF48052CAF8F0203A68C2F30222F2
:101D700082F00703042B28BF0346033A0CFA03F34F
:101D800038BF2A4621EA030303FA02F24EF20E4359
:101D90001201CEF200031A70CAF8F0903A68C2F34A
:101DA000022282F00706042E38BF30460CFA00F0FB
:101DB000033A21EA000038BF2A469040000183F828
:101DC00037002020CAF8F80040F2A41044F60001C1
:101DD000C2F20000C4F200010C264FF4E13280E8A8
:101DE0002600C0E90355C0E90565C561FFF748F95C
:101DF00018B1EFF3108072B6FEE740F2E81004F578
:101E00002441C2F2000000234FF4165280E80E0075
:101E1000C0E90333C0E90563C361FFF731F920B1BD
:101E2000EFF3108072B600BFFEE74FF4007001F0D0
:101E300011FC08B306465C2001F00CFCC8B18146D9
:101E40000663002089F8590040F28000C2F20000C9
:101E5000009043F66D00C0F600000FF20C51802296
:101E60000123CDF8049000F0BFFD484600F08EFA43
:101E700002E0304601F0D0FE5C20039003985C281D
:101E800040F0AF80039844F2B45644F2B430C2F24A
:101E90000006C2F200003063022086F8590003A851
:101EA000009042F6C500C0F600000FF2C841802243
:101EB0000023019600F098FD304600F067FA039881
:101EC00044F6C421C2F200010028086000F03A8202
:101ED00040F21C094FF0500080F31188BFF36F8F60
:101EE000BFF34F8FC2F20009D9F80000411C00284F
:101EF000C9F8001000F07F8044F66C3CC2F2000C80
:101F0000DCF80010002900F08480D9F80020002AB5
:101F100000F03481501EC9F8000004D1002080F385
:101F20001188DCF80010002900F031815C2003905A
:101F300003985C2840F03F81039844F6102644F251
:101F40001060C2F20006C2F200003063022086F880
:101F5000590003A8009042F68930C0F600000FF245
:101F600024414FF480720223019600F03DFD30467B
:101F700000F00CFA039844F67031C2F20001002818
:101F8000086000F004814FF0500181F31188BFF325
:101F90006F8FBFF34F8F44F6CC21C2F200014FF098
:101FA000FF320A6044F63431C2F2000101220A60B5
:101FB00044F66831C2F2000100224CF270200A603F
:101FC000C4F20F1057F80C1C421C914240F01581CE
:101FD0004FF0500080F31188BFF36F8FBFF34F8F26
:101FE000FEE74FF0500080F31188BFF36F8FBFF30F
:101FF0004F8F00BFFEE757F8080C00063FF47CAF98
:102000004FF0500080F31188BFF36F8FBFF34F8FF5
:10201000FEE744F66C21C2F200014FF0FF320B469E
:1020200044F6802543F8082FC2F200054B60C1E951
:10203000033300232E460B6046F8082F40F224326B
:10204000C2F200026E60C5E903662B60116040F2C7
:102050003431C2F200010D605021039103995029DF
:1020600040F09F80039940F2CC21C2F2000101228E
:1020700081F8462040F22C22C2F200020A600A22B5
:102080001023C1E90F234FF0500282F31188BFF3F0
:102090006F8FBFF34F8FD9F80020531C002AC9F867
:1020A000003000F092800E68D1E90F504FF0000E22
:1020B00000FB0564013D05FB0060C1F838E0C86025
:1020C000FF20C1E9016481F8440081F845004FF028
:1020D000FF300C4644F8180F4C61C1E907440C4628
:1020E000C1F810E044F82C0F002B8C62C1E90C44BD
:1020F000C1F824E000F07780C9F8002012B9002070
:1021000080F3118844F6F422C2F20002106800261F
:102110000028134681F84C60CCF8001000F01681BE
:1021200053F8080F002800F0B280134653F8100F40
:10213000002800F0AE80134653F8180F002800F076
:10214000AA80134653F8200F002800F0A6801346FB
:1021500053F8280F002800F0A280134653F8300FE0
:10216000002800F0F080134653F8380F002800F0E4
:10217000EC8040F2CC21C2F20001C6E64FF05000E4
:1021800080F31188BFF36F8FBFF34F8FFEE74FF0DF
:10219000500080F31188BFF36F8FBFF34F8F00BFE4
:1021A000FEE74FF0500080F31188BFF36F8FBFF34D
:1021B0004F8F00BFFEE74FF0500080F31188BFF350
:1021C0006F8FBFF34F8F00BFFEE757F8086C3606DE
:1021D0003FF469AF4FF0500080F31188BFF36F8F69
:1021E000BFF34F8FFEE74FF0500080F31188BFF32D
:1021F0006F8FBFF34F8F00BFFEE757F80C1C814273
:1022000008D14FF0500080F31188BFF36F8FBFF3F8
:102210004F8FFEE79AF8F00351460390FF208AF8AB
:10222000F0039AF8F0038DF808009DF808009DF976
:102230000800B0F1FF3F72DC04209DF8081049004F
:102240008DF808109DF90810B1F1FF3F29DC9DF8C9
:10225000081049008DF808109DF90810B1F1FF3FF2
:1022600021DC9DF8081049008DF808109DF9081030
:10227000B1F1FF3F18DC9DF80810043849008DF8D3
:1022800008109DF908100029D7D403300CE001266E
:102290005CE002265AE0032658E0042656E00526B4
:1022A00054E0023000E00130032838D103980024C4
:1022B0008AF8F003786940F470007861786940F03A
:1022C00070407861CAF80040CAF80840DBF80000A6
:1022D000A0FB08014FF0FF3000EB9110CAF804009A
:1022E0000720CAF80000C9F8004001F08BFCD7F8BD
:1022F000280240F04040C7F8280200F011FC01F02D
:1023000007FD0394D9F800004FF0500181F31188C4
:10231000BFF36F8FBFF34F8F013009D0FEE74FF04F
:10232000500080F31188BFF36F8FBFF34F8FFEE72C
:10233000039838B9039828B9039818B90398002866
:10234000F6D000BFFEE7062600E007260BA01860C7
:1023500002EBC6004160D8E500000000000000006C
:10236000010203040607080954545320536572768A
:102370006963650049444C4500000000546D72518A
:1023800000000000546D7220537663002DE9F04187
:1023900040F21C084FF0500181F31188BFF36F8F9A
:1023A000BFF34F8FC2F20008D8F80020531CC8F8C2
:1023B000003022B344F2A032C2F20002136840F2AD
:1023C000203E01331360C2F2000EDEF8003044F606
:1023D000343C002B40F23833C2F2000CC2F200034E
:1023E0001DD0DCF80010002940F01C82DEF800103F
:1023F000C26AC96A914298BFCEF8000012E24EF656
:102400000452CEF2000212681206D3D04FF05000F0
:1024100080F31188BFF36F8FBFF34F8FFEE7CEF8C5
:1024200000001268012A40F0FD814FF0FF321C4687
:1024300044F8082F5C60C3E9034400241D461C6077
:1024400045F81C2F9D61C3E908551D465C6145F8A0
:10245000302FDD62C3E90D551D469C6245F8442FBF
:102460001D64C3E912551D46DC6345F8582F5D65B0
:10247000C3E917551D461C6545F86C2F9D66C3E9D9
:102480001C551D465C6645F8802FDD67C3E9215564
:102490001D469C6745F8942FC3F89050C3E9265514
:1024A0001D46C3F88C4045F8A82FC3F8A450C3E9D3
:1024B0002B551D46C3F8A04045F8BC2FC3F8B850B3
:1024C000C3E930551D46C3F8B44045F8D02FC3F8D2
:1024D000CC50C3E935551D46C3F8C84045F8E42F34
:1024E000C3F8E050C3E93A551D46C3F8DC4045F84F
:1024F000F82F05F1140645F8045CC5E9015545F8C7
:10250000084CC5E90462C5E9066605F12806EC60D9
:10251000C5E90962C5E90B6605F13C062C62C5E90F
:102520000E62C5E9106605F150066C63C5E91362D9
:10253000C5E9156605F16406AC64C5E91862C5E92C
:102540001A6605F17806EC65C5E91D62C5E91F66E6
:1025500005F18C062C67C5E92262C5E9246605F100
:10256000A006C5F88440C5E92762C5E9296605F1DA
:10257000B406C5F89840C5E92C62C5E92E6605F198
:10258000C806C5F8AC40C5E93162C5E9336605F156
:10259000DC06C5F8C040C5E93662C5E9386605F114
:1025A000F006C5F8D440C5E93B62C5E93D6605F5CE
:1025B0008276C5F8E840C5E94062C5E9426605F59E
:1025C0008C76C5F8FC40C5E94562C5E9476605F566
:1025D0009676C5F81041C5E94A62C5E94C6605F52D
:1025E000A076C5F82441C5E94F62C5E9516605F5F5
:1025F000AA76C5F83841C5E95462C5E9566605F5BD
:10260000B476C5F84C41C5E95962C5E95B6605F584
:10261000BE76C5F86041C5E95E62C5E9606605F54C
:10262000C876C5F87441C5E96362C5E9656605F514
:10263000D276C5F88841C5E96862C5E96A6605F5DC
:10264000DC76C5F89C41C5E96D62C5E96F6605F5A4
:10265000E676C5F8B041C5E97262C5E9746605F56C
:10266000F076C5F8C441C5E97762C5E9796605F534
:10267000FA76C5F8D841C5E97C62C5E97E6605F5FC
:102680000276C5F8EC41C5E98162C5E9836605F5C6
:102690000776C5F80042C5E98662C5E9886605F592
:1026A0000C76C5F81442C5E98B62C5E98D6605F55F
:1026B0001176C5F82842C5E99062C5E9926605F52C
:1026C0001676C5F83C42C5E99562C5E9976605F5F9
:1026D0001B76C5F85042C5E99A62C5E99C6605F5C6
:1026E0002076C5F86442C5E99F62C5E9A16605F593
:1026F0002576C5F87842C5E9A462C5E9A66605F560
:102700002A76C5F88C42C5E9A962C5E9AB6605F52C
:102710002F76C5F8A042C5E9AE62C5E9B06605F5F9
:102720003476C5F8B442C5E9B362C5E9B56605F5C6
:102730003976C5F8C842C5E9B862C5E9BA6605F593
:102740003E76C5F8DC42C5E9BD62C5E9BF6605F560
:102750004376C5F8F042C5E9C262C5E9C46605F52D
:102760004876C5F80443C5E9C762C5E9C96605F5F9
:102770004D76C5F81843C5E9CC62C5E9CE6605F5C6
:102780005276C5F82C43C5E9D162C5E9D36605F593
:102790005776C5F84043C5E9D662C5E9D866C5F89D
:1027A000544344F69825C2F200052E4646F8082FF9
:1027B0006E60C5E9036644F6AC26C2F200063746F1
:1027C00044F6E0212C6047F8082FC2F20001776040
:1027D000C6E903770F46346047F8082F4F60C1E918
:1027E00003770C6044F65431C2F200010F4647F8FB
:1027F000082F4F60C1E903770C6044F64031C2F204
:1028000000010F4647F8082F4F60C1E903770C60BD
:1028100040F22831C2F200010D6040F23031C2F2C4
:1028200000010E6044F2AC31C2F200010A6844F2C9
:10283000B03401320A604264C2F20004C26A216804
:10284000061D8A4202EB820188BF226003EB8102EF
:1028500054684261A5688460C560A568A6606E6022
:1028600053F82120013243F82120D8F80020F2B19A
:10287000511EC8F8001002D1002181F31188DCF844
:10288000001091B1DEF80010C06AC96A814228BF09
:10289000BDE8F0814EF60450CEF200004FF08051BA
:1028A0000160BFF34F8FBFF36F8FBDE8F0814FF032
:1028B000500080F31188BFF36F8FBFF34F8F00BFBD
:1028C000FEE7000044F2A43B40F21C0A44F2A038A8
:1028D000C2F2000BC2F2000A4FF00009C2F2000877
:1028E00003E000BF204601F097F9DBF80000002864
:1028F00049D04FF0500080F31188BFF36F8FBFF3C2
:102900004F8FDAF80000411CCAF8001030B94EF6BB
:102910000452CEF200021268120650D144F654322C
:10292000C2F20002D268D468D4E902736269BB6063
:102930005668E368251DAE425F6008BF5360C4F867
:1029400014901368A3F1010313601268D8F80020F3
:10295000A2F10102C8F80020DBF80020A2F1010278
:10296000CBF8002011B3CAF8000008B989F3118828
:1029700094F859000228B8D00128B3D048BB206B86
:1029800001F04AF9AEE740F23830C2F200000068C8
:102990000228AAD34EF60450CEF200004FF0805128
:1029A0000160BFF34F8FBFF36F8F9EE74FF0500072
:1029B00080F31188BFF36F8FBFF34F8FFEE74FF0A7
:1029C000500080F31188BFF36F8FBFF34F8F00BFAC
:1029D000FEE74FF0500080F31188BFF36F8FBFF315
:1029E0004F8F00BFFEE700002DE9F04381B0DDE925
:1029F00008948046206B17460E469100A5221D467E
:102A0000FDF75CFD206B002E00EB8700A0F10400B9
:102A100020F0070055D0317884F83410317800293F
:102A20004BD0717884F835107178002945D0B17891
:102A300084F83610B17800293FD0F17884F8371047
:102A4000F178D1B3317984F838103179A9B371793B
:102A500084F83910717981B3B17984F83A10B17979
:102A600059B3F17984F83B10F17931B3317A84F8B4
:102A70003C10317A09B3717A84F83D10717AE1B172
:102A8000B17A84F83E10B17AB9B1F17A84F83F1086
:102A9000F17A91B1317B84F84010317B69B1717B5F
:102AA00084F84110717B41B1B17B84F84210B17B55
:102AB00000291CBFF17B84F84310002184F84310E7
:102AC00002E0002184F83410372D28BF3725C5F1E6
:102AD00038020021A2614FF0807242F64937C4E902
:102AE0001351C4E90441C4E90941E562616584F810
:102AF000581028F00103C0F6000740F8042C6FF0CE
:102B0000020240E9037340E909214438B9F1000F9A
:102B1000206018BFC9F8004001B0BDE8F083000094
:102B200008480068006880F308884FF0000080F3D0
:102B3000148862B661B6BFF34F8FBFF36F8F00DFAB
:102B400000BF000008ED00E081B00020009040F2DE
:102B50001C00C2F2000000684FF0500181F31188A0
:102B6000BFF36F8FBFF34F8F013007D0FEE700BF79
:102B7000009830B9009820B9009810B90098002842
:102B8000F6D001B07047000088B040F2243B40F21C
:102B90001C3840F21C07C2F2000BC2F20008C2F25D
:102BA0000007DBF80010086820B1C968D1F8009070
:102BB00002E000BF4FF0000944F2A832C2F2000266
:102BC00011680131116044F66831C2F20001D1F898
:102BD00000A0D8F800108A4572D2DBF80000016826
:102BE000002900F0938000250FE001694F68B7606D
:102BF000BC60F1604C607061016801310160DBF81C
:102C000000000168002900F08180C068C66807687C
:102C1000D6E9022170699160F168341D4A6042680A
:102C2000A24208BF41607561016801390160006816
:102C3000316A3046884796F828004007DFD5B069EA
:102C4000C219BA421AD9DBF80000511C7260366111
:102C5000CBD000F1080300BF59680F6897422AD80B
:102C60004B681F68974229D859680F68974222D845
:102C70004B681F6897421F46EED9B8E744F66C30A0
:102C8000C2F200000068002800F0F58344F63431F9
:102C9000CDE904570696C2F20001096821B144F259
:102CA000A831C2F20001096804A901F095F80028D2
:102CB000A5D100F0E0BB0F46194698E71F4696E7FE
:102CC000C8F800A0A0B3CA4532D301F0F3FADBF88C
:102CD0000000C168CE68D6E9021372698B60F368A0
:102CE00059605768311D8F4208BF536000237361DC
:102CF0001368013B1360126896F8282053071AD412
:102D000002F0FE0086F8280058E100BF40F234329D
:102D1000C2F20002116840F21C38C2F20008CBF87F
:102D200000101060C8F800A001F0C4FA80E300BFF2
:102D300068B3002134E0B369366103EB0902524500
:102D4000726009D8AAEB0900984280F0E38040F253
:102D50003430C2F200000068531C00F0AD8000F176
:102D6000080700BF7B681D68954200F218815C6807
:102D70002768974200F2168163681F68974200F245
:102D800013815F683D6895423D46EBD90EE140F204
:102D90003430C2F2000000680068B0FA80F04109E7
:102DA00044F66C30C2F2000000684FF0500282F32B
:102DB0001188BFF36F8FBFF34F8F3A680026531C03
:102DC0003B603AB94EF60457CEF200073F683F0623
:102DD00040F0838340F2CC25C2F2000595F84470A0
:102DE000FF2F08BF85F8446095F84570FF2F05D187
:102DF00040F2CC27C2F2000787F8456040F21C3849
:102E000040F21C07002BC2F20008C2F2000700F0DB
:102E10005A833A6012B9002282F3118840F2CC2220
:102E2000C2F20002926B002A40F01B8140F220386F
:102E300040F2CC24C2F20008C2F20004D8F800200C
:102E4000A36A00F12406D3619F6802F11805176296
:102E50009F687D609D609662626A0132626244F69C
:102E60006832C2F200021268D8F80030D3E9025684
:102E70005F69AE60DE681C1D75607D68A54208BF95
:102E80007E6000265E613B68A3F101033B603B6806
:102E9000A9B144F64036C2F20006D8F800107268B4
:102EA0000F1D8A609368CB6093685F6097604E6186
:102EB000316801313160CCE003695D6876E0A9EBEF
:102EC0000A01D8F8003012EB010CC3F804C045D356
:102ED00040F23031C2F20001D1F800C0D8F8002031
:102EE000134653F8046F711C74D00CF10804676822
:102EF0003968B14279D879680D68B54278D84F6899
:102F00003D68B54200F298807C6821682546B14250
:102F1000EDD993E044F66C30C2F20000006840F254
:102F20001C3840F21C070028C2F20008C2F2000759
:102F300000F0DD820021CDE9041944F63431069613
:102F4000C2F20001096821B144F2A831C2F20001C5
:102F5000096804A900F040FFC0BBC8E240F2283174
:102F6000C2F20001D1F800E0D8F800703B4653F8F7
:102F7000044F611C32D00EF108014E683268A24243
:102F800030D871680A68A24234D84E683268A242CA
:102F900028D871680A68A2420A46EED92BE01D467D
:102FA0003B4603E0254601E01D462346B560A96087
:102FB000F3605960706101680131016040F21C38B2
:102FC00040F21C07C2F20008C2F20007316A304624
:102FD00088475BE0DCF810707D682FE0DEF8106059
:102FE000726808E032460E4605E03D46274625E079
:102FF0000D4623E00A46BA609360FE607360C7F82E
:1030000014E0DEF8001040F21C380131CEF8001058
:1030100044F6CC21C2F20001096840F21C078C453D
:10302000C2F20008C2F200071BD244F6CC21C2F261
:103030000001C1F800C014E03D460F469560AB604A
:10304000D7607B60C2F814C0DCF800100131CCF806
:10305000001040F21C3840F21C07C2F20008C2F215
:10306000000700F04FFA01F025F978B94EF6045147
:103070004FF08050CEF200010860BFF34F8FBFF3D6
:103080006F8F03E0DDE901200399904744F66C302F
:10309000C2F200000668002E00F0D98144F63430F8
:1030A000C2F20000006820B144F2A830C2F2000071
:1030B00000684FF0500080F31188BFF36F8FBFF3AB
:1030C0004F8F386840F2CC25411CC2F200053960B0
:1030D00038B94EF60450CEF200000068000640F009
:1030E000D481AC6B04B32A6C52B1D5E9023081189B
:1030F000E960994224BF2968E9606846FDF799F9BB
:10310000601EA863286978B1F069C06801F058F8BA
:1031100050B14EF604514FF08050CEF200010860DD
:10312000BFF34F8FBFF36F8F3868002800F099818D
:103130000138386002D1002080F31188002C3FF460
:1031400030ADDDF80090B9F1000F9BD4029E70699C
:1031500078B1D6E90221331D9160F1684A60426876
:103160009A4208BF41600021716101680139016024
:10317000006844F66830C2F20000D0F800A0D8F829
:103180000000824580F08480DBF80000016800299F
:103190006ED000250FE001694D68BD60AC60F9603C
:1031A0004C6078610168002501310160DBF80000A6
:1031B000016800295CD0C068C768D0F80080D7E9F2
:1031C000022178699160F9683C1D4A604268A24218
:1031D00008BF41607D610168013901600068396A9A
:1031E0003846884797F828004007DFD5B86900EBD4
:1031F000080242451AD9DBF80000511C7A603F6191
:10320000C9D000F1080300BF59680D68954229D85C
:103210004B681D68954228D859680D68954221D899
:103220004B681D6895421D46EED9B6E744F66C30F2
:10323000C2F200000068002800F0FF8044F634313C
:10324000CDE904580697C2F20001096821B144F2A1
:10325000A831C2F20001096804A900F0BDFD0028F0
:10326000A4D1EAE00D46194697E71D4695E700BF51
:1032700040F23432C2F20002116840F21C3840F2CF
:103280001C07C2F20008C2F20007CBF80010106061
:10329000B9F1090FC8F800A03FF6F8AEDFE809F071
:1032A0000505054A5A4D05054A5A96F82800019C1D
:1032B000B16940F0010086F828000A19304640F84C
:1032C000042F5245366105D9A24576D2A24259460D
:1032D00008D273E0AAEB04038B4240F23431C2F20D
:1032E00000016BD3316A3046884796F828004007C2
:1032F0007FF5CCAE44F66C30C2F2000000680028C6
:1033000000F0CD80B16900222144CDE9042144F6CA
:1033100034310696C2F20001096821B144F2A831A5
:10332000C2F20001096804A900F056FD00287FF4EC
:10333000ADAEB4E096F8280007E096F828008107C3
:1033400003D4304600F068FCA0E600F0FE0086F8EA
:1033500028009BE696F8280040F00101019886F8C5
:1033600028100028B06100F0A48040F2343100EB56
:103370000A033046C2F2000140F8043F366153456B
:1033800088BF594609685A1C14D001F1080700BFCC
:103390007A6815689D4238D855682F689F4237D89B
:1033A0006A6817689F4235D857683D683C469D4219
:1033B000EED931E00A6954682EE059460968531C79
:1033C00014D001F1080700BF7B681D68954210D832
:1033D0005D682F6897420FD86B681F6897420DD8B9
:1033E0005F683D683C469542EED909E00B695C6830
:1033F00006E01C463B4603E02C4601E01C462B46FB
:10340000B460A060F36058600AE014463A4603E0F6
:103410002C4601E014462A46B460A060F260506079
:103420007161086840F21C380130C2F2000808607F
:1034300040F21C07C2F2000728E64FF0500080F36C
:103440001188BFF36F8FBFF34F8F00BFFEE74FF0C0
:10345000500080F31188BFF36F8FBFF34F8F00BF11
:10346000FEE74FF0500080F31188BFF36F8FBFF37A
:103470004F8F00BFFEE74FF0500080F31188BFF37D
:103480006F8FBFF34F8F00BFFEE74FF0500080F308
:103490001188BFF36F8FBFF34F8F00BFFEE74FF070
:1034A000500080F31188BFF36F8FBFF34F8F00BFC1
:1034B000FEE74FF0500080F31188BFF36F8FBFF32A
:1034C0004F8F00BFFEE74FF0500080F31188BFF32D
:1034D0006F8FBFF34F8F00BFFEE74FF0500080F3B8
:1034E0001188BFF36F8FBFF34F8F00BFFEE74FF020
:1034F000500080F31188BFF36F8FBFF34F8F00BF71
:10350000FEE700002DE9F04140F21C084FF05001A9
:1035100081F31188BFF36F8FBFF34F8FC2F20008A2
:10352000D8F800100446481C0029C8F800005CD0F8
:1035300094F94560012E14DB44F67437C2F200079B
:10354000012500BF606A50B1206BC06800F038FEF2
:103550000028F0B218BF3D60013E0128F2D8D8F82B
:103560000000FF21002884F845104ED00138C8F82B
:10357000000002D1002080F311884FF0500080F34A
:103580001188BFF36F8FBFF34F8FD8F80010481C1E
:103590000029C8F8000042D094F94460012E14DBE1
:1035A00044F67437C2F20007012500BF206950B10C
:1035B000E069C06800F004FE0028F0B218BF3D606A
:1035C000013E0128F2D8D8F80000FF21002884F835
:1035D000441034D00138C8F8000018BFBDE8F081AD
:1035E000002080F31188BDE8F0814EF60451CEF240
:1035F0000001096809069BD04FF0500080F3118844
:10360000BFF36F8FBFF34F8FFEE74FF0500080F393
:103610001188BFF36F8FBFF34F8F00BFFEE74EF6E9
:103620000451CEF2000109680906B5D04FF05000F0
:1036300080F31188BFF36F8FBFF34F8FFEE74FF01A
:10364000500080F31188BFF36F8FBFF34F8F00BF1F
:10365000FEE700002DE9F04144F2A831C2F200017A
:103660000A6844F6942801320A6040F22C32C2F211
:1036700000021168C2F2000849B198F80010002950
:1036800018BF4FF00041014240F08F8035E040F21A
:103690009871C2F20001CF1D27F0070711F0070350
:1036A000A1EB070618BF394644F63837C2F20007C7
:1036B0000025C7E900154FF47057002B18BF06F519
:1036C0007057CB1923F00703A3F10807176043E9EC
:1036D00002557B1AC1E9007344F6C821C2F2000109
:1036E0000B6044F6C021C2F200010B60012188F892
:1036F00000104FF00041014257D120F0070144F67D
:10370000C02E01F110044107C2F2000EDEF80010D5
:1037100008BF00F108048C4247D844F63835C2F29D
:10372000000529684B68A34228D20868B8B10E4644
:103730004368A34218D20768B7B17B68A34216D288
:103740003D68A5B16B68A34214D22E6896B1736828
:10375000A34212D2306831460028E9D10EE044F687
:103760003835C2F2000509E00146354606E0394623
:10377000054603E029463D4600E031461068814297
:1037800013D0D5F800C00E68181B11282E604BD33B
:103790000B195D071AD04FF0500080F31188BFF36A
:1037A0006F8FBFF34F8F00BFFEE7002400F082FD54
:1037B000600708D04FF0500080F31188BFF36F8F7F
:1037C000BFF34F8FFEE72046BDE8F08158604C60A4
:1037D00044F63834C2F20004206898420AD20468E1
:1037E0009C420AD22068984204D2046805469C4252
:1037F000F2D303E02546044600E005466E685868AB
:10380000AF199F4202D130442B4668601E18A64271
:1038100006D11268944203D0D4E9004210445860A3
:103820009D421C6018BF2B6044F6C8224868DEF831
:103830000030C2F2000214681B1AA342CEF8003016
:1038400038BF136098F800200CF10804002A4FF0EC
:10385000000218BF40F000400A6044F6D422C2F2D1
:10386000000213684860581C10609FE78EB00DF18D
:10387000060040F2040440F2E81844F2A83940F28D
:10388000203A0530C2F20004C2F20008C2F2000978
:10389000C2F2000A009000BF2046FCF7F7FCFD21B1
:1038A00040F20112ADF80610C11CADF80920C6B2F5
:1038B0006FF0020281EA020B8DF80810B6B3711E98
:1038C000032900F0030C05D20021BCF1000F1CD12C
:1038D0002CE000BFACEB0601E31E002213F8047FCE
:1038E000043A13F8015C5C7885EA0B0598786F4020
:1038F0006740914280EA070BF0D140F20404514244
:10390000C2F20004BCF1000F10D0625CBCF1010FE8
:103910008BEA020B0AD021444A78BCF1020F8BEAF1
:10392000020B1CBF88788BEA000B00BF0098214671
:103930003246FCF77EFD0DF10600304480F805B0FC
:1039400098F83D000024202803D198F83C00012875
:1039500072D1D9F80000002840F04A81D9F800005F
:103960000130C9F8000044F66830C2F20000016876
:10397000DAF8000001F6B83CD0E902734269BB6096
:10398000C368061D5F605768B74208BF5360446153
:1039900010680138106010684FF24842DAF80000F1
:1039A000CFF6FF729142C0F804C025D340F2303008
:1039B000C2F200000068DAF800100A4652F8046FFC
:1039C000731C00F0908000F1080400BF63681F685A
:1039D000B74200F28E805D682F68B74200F28F8098
:1039E0006B681F68B74200F28C805C682768B7423A
:1039F0002746EBD988E000BF40F22830C2F2000031
:103A00000168DAF80020134653F8044F601C6DD0AB
:103A100001F108056E683068A0426DD87768386893
:103A2000A0427AD87E683068A04278D87568286845
:103A3000A0422846EED975E00DF10600B11DC8F888
:103A400020002120A8F82410A8F82610C8F840402B
:103A500088F83D00D8F8343041F27962C0F60002AF
:103A6000DA6341F22572C0F600021A6493F834203A
:103A7000D8F8000041F2FD47C0F60007012ADF64D4
:103A80001C657BD0012783F834709A6D93F83570EC
:103A9000012F71D1022783F835705C651F689E681D
:103AA000D3F85CC03D68402E25F480250DF1060654
:103AB00000F104033D607960314604BF1946334686
:103AC000B9603F2101FA0CF1FB609160396841F067
:103AD00016013960396841F008013960396841F0F0
:103AE000010139604AE003695F680DE00E697068A2
:103AF00018E01F46234607E030462E4612E02F46C8
:103B000002E01F462B4600BF8F60BA60CB605A6050
:103B1000486101680131016019E0384602E0304631
:103B20003E4600BF90608360D66073605161086854
:103B30000130086044F6CC20C2F2000000688445E1
:103B40003EBF44F6CC20C2F20000C0F800C000F036
:103B5000B1FB40F204040028C2F200047FF49CAEE2
:103B60004EF60450CEF200004FF080510160BFF3DA
:103B70004F8FBFF36F8F8FE683F834406FF04001B3
:103B8000016088F83C4000BFD8F8000050E8050FFD
:103B9000D8F8001040F0800041E80502002A3FF408
:103BA000D8AED8F8000050E8050FD8F8001040F063
:103BB000800041E80502002A3FF4CBAED8F80000AF
:103BC00050E8050FD8F8001040F0800041E80502E9
:103BD000002A3FF4BEAED8F8000050E8050FD8F830
:103BE000001040F0800041E80502002ACCD1B0E688
:103BF0004FF0500080F31188BFF36F8FBFF34F8FEA
:103C0000FEE70000DFF80C00016841F4700101607C
:103C10007047000088ED00E080B5002808BF80BD37
:103C200044F69421C2F200010A7850F804CC002A2C
:103C300018BF4FF0004212EA0C0F0CD0A0F108019F
:103C40000B6893B14FF0500080F31188BFF36F8F72
:103C5000BFF34F8FFEE74FF0500080F31188BFF3A2
:103C60006F8FBFF34F8F00BFFEE72CEA020240F8D0
:103C7000042C44F2A832C2F200021368013313602C
:103C800050F804CC44F6C020C2F20000026862443E
:103C9000026044F63830C2F2000000BF03688B4275
:103CA0000AD2186888420AD203688B4204D2186884
:103CB0001A468842F2D303E00246184600E01A464C
:103CC000D2F804E002EB0E038B4203D1F444114618
:103CD000C2F804C001EB0C0383420AD140F22C333A
:103CE000C2F200031B68984203D0D0E9000363448A
:103CF0004B60086044F6D8208A4218BF1160C2F2B7
:103D00000000016801310160BDE8804000F0D2BAD6
:103D100044F2A830C2F20000006830B144F67430BA
:103D2000C2F2000001210160704744F67430C2F213
:103D30000000002144F2B03C0160C2F2000CDCF84B
:103D4000001040F2383201EB8103C2F2000252F857
:103D50002300A8B101EB810002EB800353F8040FAC
:103D60004268181D82421A6001D152681A60D068F8
:103D700040F22032C2F200021060CCF8001070470E
:103D800002EB83000139A0F12803481C15D05869C3
:103D90000028DFD189B11868C8B901290DD053F8BE
:103DA000140CB0B9022908D053F8280C04390028A3
:103DB000A3F15003E9D00131CCE74FF0500080F37C
:103DC0001188BFF36F8FBFF34F8F00BFFEE701393C
:103DD000C0E70239BEE700002DE9F04190B3044688
:103DE000002938D044F63430C2F20000006820B117
:103DF00044F2A830C2F20000006840F21C054FF007
:103E0000500080F31188BFF36F8FBFF34F8FC2F262
:103E100000052868421C2A6048B3A36BE66BB342D6
:103E200035D2A66B226C002A37D06068FCF701FB04
:103E3000216CD4E9010208446060904224BF2068EC
:103E400060602DE04FF0500080F31188BFF36F8F5A
:103E5000BFF34F8FFEE7206C0028C3D04FF0500017
:103E600080F31188BFF36F8FBFF34F8FFEE74EF6DD
:103E70000452CEF200021268120627D04FF0500012
:103E800080F31188BFF36F8FBFF34F8FFEE7002AD7
:103E900049D028600020BDE8F081206800284CD07F
:103EA0000023701CA063606AD0B1206BC06800F072
:103EB00087F908B34EF60450CEF200004FF080515F
:103EC0000160BFF34F8FBFF36F8F15E0A26BE36B01
:103ED0009A42A6D32860002080F31188BDE8F081C3
:103EE00053B14EF60450CEF200004FF08051016005
:103EF000BFF34F8FBFF36F8F286858B10138286028
:103F00001CBF0120BDE8F081002080F31188012052
:103F1000BDE8F0814FF0500080F31188BFF36F8F40
:103F2000BFF34F8FFEE74FF0500080F31188BFF3CF
:103F30006F8FBFF34F8F00BFFEE7A1684FF0000EF9
:103F400079B140F22030C2F20000006888420CD003
:103F50004FF0500080F31188BFF36F8FBFF34F8F86
:103F6000FEE70023C4F808E09BE7086D002842D074
:103F7000CB6ACA6C013893424FF00003086537D012
:103F8000B0BBD1E902704B69B860D3F80480C8684F
:103F900001F1040CE045476008BF5860002048610B
:103FA000186840F23838013818601868C2F13800D3
:103FB000886144F2B030CA62C2F200000368C2F203
:103FC00000089A4288BF026002EB820008EB80037F
:103FD0005F684B61BA688F60CA60BA68C7F808C08A
:103FE000C2F804C058F820100123013148F820100D
:103FF000C4F808E055E74FF0500080F31188BFF394
:104000006F8FBFF34F8F00BFFEE700002DE9F04F29
:1040100044F2A830C2F20000006848B144F6DC2047
:10402000C2F200000168013101600020BDE8F08F9C
:1040300044F66830C2F20000016811F1010BC0F8CB
:1040400000B02ED340F22830C2F20000026812689D
:104050004AB14FF0500080F31188BFF36F8FBFF368
:104060004F8F00BFFEE740F23033C2F20003026818
:104070001F6807601A6044F6D022C2F2000213687B
:10408000013313600268126822B10068C068C0681A
:10409000406801E04FF0FF3044F6CC22C2F200024B
:1040A000106044F6CC21C2F20001086840F2203EC4
:1040B00040F238388345C2F2000EC2F2000801D245
:1040C000002068E040F2283AC2F2000ADAF8000064
:1040D0000068002854D044F2B039C2F20009002030
:1040E00022E000BFF46AD9F800108C4204EB84018E
:1040F00088BFC9F8004008EB81035D687361AA6856
:10410000B560F260AA68AF60576058F821200132AC
:1041100048F82120DEF80010C96ADAF800208C4245
:1041200028BF0120116879B3DAF80040E468E66836
:10413000374657F8044FA34528D3D6E902357469AA
:104140009D606168F568B9426B6008BF6560216871
:10415000013921602168B46A002CC3D0D6E9071365
:1041600006F1180C8B60356A63686960002163454D
:1041700008BF6560B1622168013921602168B1E73B
:104180004FF0FF34002005E04FF0FF3444F6CC211F
:10419000C2F200010C60DEF80010C96A01EB810177
:1041A00058F82110012944F67431C2F2000188BF89
:1041B00001200968002918BF0120BDE8F08F000028
:1041C000B0B558B3D0E90713826A8B60036AD2F89E
:1041D00004E000F1180C59600021E64508BF536067
:1041E0008162116801391160116844F2A831C2F28C
:1041F00000010968D9B144F6E021C2F200010A6861
:104200004B6801329D68C36105629D68C3F808C0B0
:10421000C5F804C081620A60C26A39E04FF05000FC
:1042200080F31188BFF36F8FBFF34F8FFEE7D0E9A4
:10423000021342698B60D2F804E0C36800F1040CF9
:10424000E645596008BF5360116844F2B033013944
:1042500011601168C2F20003C26A196840F2383E68
:104260008A4202EB8201C2F2000E88BF1A600EEB96
:1042700081035C684361A5688460C560A568C4F873
:1042800008C0C5F804C05EF8210001304EF82100D6
:1042900040F22030C2F200000068C06A824291BF42
:1042A000002044F67431C2F20001012088BF08608A
:1042B000B0BD00002DE9F04F81B044F2A830C2F249
:1042C000000001684FF0500282F31188BFF36F8F36
:1042D000BFF34F8FC1B140F21C07C2F2000739682B
:1042E0004A1C3A6089B10168013901600068E0B197
:1042F00000203968002900F0D1800139396000F0D0
:10430000D68001B0BDE8F08FFEE74EF60451CEF244
:10431000000109680906E6D04FF0500080F31188CB
:10432000BFF36F8FBFF34F8FFEE744F2A030C2F2AE
:10433000000000680028DBD044F6E022C2F2000250
:10434000106844F674340028C2F2000400F0D080F3
:10435000D06844F2B03BC168C2F2000BD1E90763F8
:10436000886AB36043680F6A01F1180843457E60AC
:1043700008BF476000278F6207680B1D013F076079
:104380000068D1E902674869B7604568CF689D4217
:104390007E6008BF4760076840F23839013F076018
:1043A0000068D1F82CE0DBF80070C2F20009BE45CD
:1043B0000EEB8E0788BFCBF800E009EB87056C6831
:1043C0004D61A0688C60C860A068A360436059F824
:1043D00027009246013049F8270040F22030C2F20F
:1043E00000000068C06A864506D344F67432012096
:1043F000C2F2000210605246106800285DD04FF0F3
:10440000040C002505E000BF5046DAF80000002843
:1044100053D0D1E90747DCF800E0A7600F6AC64532
:104420007C6008BFCCF800708D622F68013F2F6060
:104430002F68D1E902244F6994607868CC6898426B
:10444000626008BF7C603868013838603868CF6ABD
:10445000DBF80000874207EB870088BFCBF80070CD
:1044600009EB800254684A61A6688C60CE60A66839
:10447000A360736059F82020013249F8202040F2EF
:104480002030C2F200000068C06A8742BCD344F604
:104490007430C2F2000001220260B5E74FF0500014
:1044A00080F31188BFF36F8FBFF34F8FFEE70021BA
:1044B00081F3118801B0BDE8F08F40F22830C2F2DC
:1044C00000000168096821B10068C068C0684068E0
:1044D00001E04FF0FF3040F21C0744F6743444F61C
:1044E000CC21C2F20007C2F20004C2F2000108604F
:1044F00044F6DC28C2F20008D8F8005055B1012675
:10450000FFF784FD002818BF2660013DF8D1002088
:10451000C8F80000206800283FF4EAAE4EF60450C8
:10452000CEF200004FF080510160BFF34F8F0120A9
:10453000BFF36F8FDDE6F1EE100A4FF6FF71C0F2A8
:10454000C03120EA010040F04070E1EE100A7047EF
:10455000704500080000002020000000E80100086D
:104560009045000820000020585100000402000877
:104570000024F4005B76365D5B6D305D5B74355D09
:10458000EB85C1D6BFC6BCBCB4F38C57AAAAAAAAF5
:04000005080001AD41
:00000001FF
